{
	"contracts/lotter.sol": {
		"Lottery": {
			"abi": [
				{
					"inputs": [],
					"stateMutability": "nonpayable",
					"type": "constructor"
				},
				{
					"inputs": [],
					"name": "getBalance",
					"outputs": [
						{
							"internalType": "uint256",
							"name": "",
							"type": "uint256"
						}
					],
					"stateMutability": "view",
					"type": "function"
				},
				{
					"inputs": [],
					"name": "manager",
					"outputs": [
						{
							"internalType": "address",
							"name": "",
							"type": "address"
						}
					],
					"stateMutability": "view",
					"type": "function"
				},
				{
					"inputs": [],
					"name": "participate",
					"outputs": [],
					"stateMutability": "payable",
					"type": "function"
				},
				{
					"inputs": [],
					"name": "pickWinner",
					"outputs": [],
					"stateMutability": "nonpayable",
					"type": "function"
				},
				{
					"inputs": [
						{
							"internalType": "uint256",
							"name": "",
							"type": "uint256"
						}
					],
					"name": "players",
					"outputs": [
						{
							"internalType": "address payable",
							"name": "",
							"type": "address"
						}
					],
					"stateMutability": "view",
					"type": "function"
				},
				{
					"inputs": [],
					"name": "winner",
					"outputs": [
						{
							"internalType": "address payable",
							"name": "",
							"type": "address"
						}
					],
					"stateMutability": "view",
					"type": "function"
				}
			],
			"devdoc": {
				"kind": "dev",
				"methods": {},
				"version": 1
			},
			"evm": {
				"assembly": "    /* \"contracts/lotter.sol\":70:1151  contract Lottery{... */\n  mstore(0x40, 0x80)\n    /* \"contracts/lotter.sol\":199:251  constructor(){... */\n  callvalue\n  dup1\n  iszero\n  tag_1\n  jumpi\n  0x00\n  dup1\n  revert\ntag_1:\n  pop\n    /* \"contracts/lotter.sol\":233:243  msg.sender */\n  caller\n    /* \"contracts/lotter.sol\":223:230  manager */\n  0x00\n  dup1\n    /* \"contracts/lotter.sol\":223:243  manager = msg.sender */\n  0x0100\n  exp\n  dup2\n  sload\n  dup2\n  0xffffffffffffffffffffffffffffffffffffffff\n  mul\n  not\n  and\n  swap1\n  dup4\n  0xffffffffffffffffffffffffffffffffffffffff\n  and\n  mul\n  or\n  swap1\n  sstore\n  pop\n    /* \"contracts/lotter.sol\":70:1151  contract Lottery{... */\n  dataSize(sub_0)\n  dup1\n  dataOffset(sub_0)\n  0x00\n  codecopy\n  0x00\n  return\nstop\n\nsub_0: assembly {\n        /* \"contracts/lotter.sol\":70:1151  contract Lottery{... */\n      mstore(0x40, 0x80)\n      jumpi(tag_1, lt(calldatasize, 0x04))\n      shr(0xe0, calldataload(0x00))\n      dup1\n      0x12065fe0\n      eq\n      tag_2\n      jumpi\n      dup1\n      0x481c6a75\n      eq\n      tag_3\n      jumpi\n      dup1\n      0x5d495aea\n      eq\n      tag_4\n      jumpi\n      dup1\n      0xd11711a2\n      eq\n      tag_5\n      jumpi\n      dup1\n      0xdfbf53ae\n      eq\n      tag_6\n      jumpi\n      dup1\n      0xf71d96cb\n      eq\n      tag_7\n      jumpi\n    tag_1:\n      0x00\n      dup1\n      revert\n        /* \"contracts/lotter.sol\":419:575  function getBalance() public view returns (uint){... */\n    tag_2:\n      callvalue\n      dup1\n      iszero\n      tag_8\n      jumpi\n      0x00\n      dup1\n      revert\n    tag_8:\n      pop\n      tag_9\n      tag_10\n      jump\t// in\n    tag_9:\n      mload(0x40)\n      tag_11\n      swap2\n      swap1\n      tag_12\n      jump\t// in\n    tag_11:\n      mload(0x40)\n      dup1\n      swap2\n      sub\n      swap1\n      return\n        /* \"contracts/lotter.sol\":93:115  address public manager */\n    tag_3:\n      callvalue\n      dup1\n      iszero\n      tag_13\n      jumpi\n      0x00\n      dup1\n      revert\n    tag_13:\n      pop\n      tag_14\n      tag_15\n      jump\t// in\n    tag_14:\n      mload(0x40)\n      tag_16\n      swap2\n      swap1\n      tag_17\n      jump\t// in\n    tag_16:\n      mload(0x40)\n      dup1\n      swap2\n      sub\n      swap1\n      return\n        /* \"contracts/lotter.sol\":741:1146  function pickWinner() public{... */\n    tag_4:\n      callvalue\n      dup1\n      iszero\n      tag_18\n      jumpi\n      0x00\n      dup1\n      revert\n    tag_18:\n      pop\n      tag_19\n      tag_20\n      jump\t// in\n    tag_19:\n      stop\n        /* \"contracts/lotter.sol\":257:413  function participate() public payable {... */\n    tag_5:\n      tag_21\n      tag_22\n      jump\t// in\n    tag_21:\n      stop\n        /* \"contracts/lotter.sol\":161:190  address payable public winner */\n    tag_6:\n      callvalue\n      dup1\n      iszero\n      tag_23\n      jumpi\n      0x00\n      dup1\n      revert\n    tag_23:\n      pop\n      tag_24\n      tag_25\n      jump\t// in\n    tag_24:\n      mload(0x40)\n      tag_26\n      swap2\n      swap1\n      tag_27\n      jump\t// in\n    tag_26:\n      mload(0x40)\n      dup1\n      swap2\n      sub\n      swap1\n      return\n        /* \"contracts/lotter.sol\":122:154  address payable[] public players */\n    tag_7:\n      callvalue\n      dup1\n      iszero\n      tag_28\n      jumpi\n      0x00\n      dup1\n      revert\n    tag_28:\n      pop\n      tag_29\n      0x04\n      dup1\n      calldatasize\n      sub\n      dup2\n      add\n      swap1\n      tag_30\n      swap2\n      swap1\n      tag_31\n      jump\t// in\n    tag_30:\n      tag_32\n      jump\t// in\n    tag_29:\n      mload(0x40)\n      tag_33\n      swap2\n      swap1\n      tag_27\n      jump\t// in\n    tag_33:\n      mload(0x40)\n      dup1\n      swap2\n      sub\n      swap1\n      return\n        /* \"contracts/lotter.sol\":419:575  function getBalance() public view returns (uint){... */\n    tag_10:\n        /* \"contracts/lotter.sol\":462:466  uint */\n      0x00\n        /* \"contracts/lotter.sol\":495:505  msg.sender */\n      caller\n        /* \"contracts/lotter.sol\":486:505  manager==msg.sender */\n      0xffffffffffffffffffffffffffffffffffffffff\n      and\n        /* \"contracts/lotter.sol\":486:493  manager */\n      0x00\n      dup1\n      sload\n      swap1\n      0x0100\n      exp\n      swap1\n      div\n      0xffffffffffffffffffffffffffffffffffffffff\n      and\n        /* \"contracts/lotter.sol\":486:505  manager==msg.sender */\n      0xffffffffffffffffffffffffffffffffffffffff\n      and\n      eq\n        /* \"contracts/lotter.sol\":478:528  require(manager==msg.sender,\"you are not manager\") */\n      tag_35\n      jumpi\n      mload(0x40)\n      0x08c379a000000000000000000000000000000000000000000000000000000000\n      dup2\n      mstore\n      0x04\n      add\n      tag_36\n      swap1\n      tag_37\n      jump\t// in\n    tag_36:\n      mload(0x40)\n      dup1\n      swap2\n      sub\n      swap1\n      revert\n    tag_35:\n        /* \"contracts/lotter.sol\":546:567  address(this).balance */\n      selfbalance\n        /* \"contracts/lotter.sol\":539:567  return address(this).balance */\n      swap1\n      pop\n        /* \"contracts/lotter.sol\":419:575  function getBalance() public view returns (uint){... */\n      swap1\n      jump\t// out\n        /* \"contracts/lotter.sol\":93:115  address public manager */\n    tag_15:\n      0x00\n      dup1\n      sload\n      swap1\n      0x0100\n      exp\n      swap1\n      div\n      0xffffffffffffffffffffffffffffffffffffffff\n      and\n      dup2\n      jump\t// out\n        /* \"contracts/lotter.sol\":741:1146  function pickWinner() public{... */\n    tag_20:\n        /* \"contracts/lotter.sol\":797:807  msg.sender */\n      caller\n        /* \"contracts/lotter.sol\":788:807  manager==msg.sender */\n      0xffffffffffffffffffffffffffffffffffffffff\n      and\n        /* \"contracts/lotter.sol\":788:795  manager */\n      0x00\n      dup1\n      sload\n      swap1\n      0x0100\n      exp\n      swap1\n      div\n      0xffffffffffffffffffffffffffffffffffffffff\n      and\n        /* \"contracts/lotter.sol\":788:807  manager==msg.sender */\n      0xffffffffffffffffffffffffffffffffffffffff\n      and\n      eq\n        /* \"contracts/lotter.sol\":780:834  require(manager==msg.sender,\"you are not the manager\") */\n      tag_39\n      jumpi\n      mload(0x40)\n      0x08c379a000000000000000000000000000000000000000000000000000000000\n      dup2\n      mstore\n      0x04\n      add\n      tag_40\n      swap1\n      tag_41\n      jump\t// in\n    tag_40:\n      mload(0x40)\n      dup1\n      swap2\n      sub\n      swap1\n      revert\n    tag_39:\n        /* \"contracts/lotter.sol\":869:870  3 */\n      0x03\n        /* \"contracts/lotter.sol\":853:860  players */\n      0x01\n        /* \"contracts/lotter.sol\":853:867  players.length */\n      dup1\n      sload\n      swap1\n      pop\n        /* \"contracts/lotter.sol\":853:870  players.length>=3 */\n      lt\n      iszero\n        /* \"contracts/lotter.sol\":845:898  require(players.length>=3, \"players are less than 3\") */\n      tag_42\n      jumpi\n      mload(0x40)\n      0x08c379a000000000000000000000000000000000000000000000000000000000\n      dup2\n      mstore\n      0x04\n      add\n      tag_43\n      swap1\n      tag_44\n      jump\t// in\n    tag_43:\n      mload(0x40)\n      dup1\n      swap2\n      sub\n      swap1\n      revert\n    tag_42:\n        /* \"contracts/lotter.sol\":911:917  uint r */\n      0x00\n        /* \"contracts/lotter.sol\":920:928  random() */\n      tag_45\n        /* \"contracts/lotter.sol\":920:926  random */\n      tag_46\n        /* \"contracts/lotter.sol\":920:928  random() */\n      jump\t// in\n    tag_45:\n        /* \"contracts/lotter.sol\":911:928  uint r = random() */\n      swap1\n      pop\n        /* \"contracts/lotter.sol\":939:949  uint index */\n      0x00\n        /* \"contracts/lotter.sol\":954:961  players */\n      0x01\n        /* \"contracts/lotter.sol\":954:968  players.length */\n      dup1\n      sload\n      swap1\n      pop\n        /* \"contracts/lotter.sol\":952:953  r */\n      dup3\n        /* \"contracts/lotter.sol\":952:968  r%players.length */\n      tag_47\n      swap2\n      swap1\n      tag_48\n      jump\t// in\n    tag_47:\n        /* \"contracts/lotter.sol\":939:968  uint index = r%players.length */\n      swap1\n      pop\n        /* \"contracts/lotter.sol\":988:995  players */\n      0x01\n        /* \"contracts/lotter.sol\":996:1001  index */\n      dup2\n        /* \"contracts/lotter.sol\":988:1002  players[index] */\n      dup2\n      sload\n      dup2\n      lt\n      tag_49\n      jumpi\n      tag_50\n      tag_51\n      jump\t// in\n    tag_50:\n    tag_49:\n      swap1\n      0x00\n      mstore\n      keccak256(0x00, 0x20)\n      add\n      0x00\n      swap1\n      sload\n      swap1\n      0x0100\n      exp\n      swap1\n      div\n      0xffffffffffffffffffffffffffffffffffffffff\n      and\n        /* \"contracts/lotter.sol\":979:985  winner */\n      0x02\n      0x00\n        /* \"contracts/lotter.sol\":979:1002  winner = players[index] */\n      0x0100\n      exp\n      dup2\n      sload\n      dup2\n      0xffffffffffffffffffffffffffffffffffffffff\n      mul\n      not\n      and\n      swap1\n      dup4\n      0xffffffffffffffffffffffffffffffffffffffff\n      and\n      mul\n      or\n      swap1\n      sstore\n      pop\n        /* \"contracts/lotter.sol\":1013:1019  winner */\n      0x02\n      0x00\n      swap1\n      sload\n      swap1\n      0x0100\n      exp\n      swap1\n      div\n      0xffffffffffffffffffffffffffffffffffffffff\n      and\n        /* \"contracts/lotter.sol\":1013:1028  winner.transfer */\n      0xffffffffffffffffffffffffffffffffffffffff\n      and\n        /* \"contracts/lotter.sol\":1013:1042  winner.transfer(getBalance()) */\n      0x08fc\n        /* \"contracts/lotter.sol\":1029:1041  getBalance() */\n      tag_53\n        /* \"contracts/lotter.sol\":1029:1039  getBalance */\n      tag_10\n        /* \"contracts/lotter.sol\":1029:1041  getBalance() */\n      jump\t// in\n    tag_53:\n        /* \"contracts/lotter.sol\":1013:1042  winner.transfer(getBalance()) */\n      swap1\n      dup2\n      iszero\n      mul\n      swap1\n      mload(0x40)\n      0x00\n      mload(0x40)\n      dup1\n      dup4\n      sub\n      dup2\n      dup6\n      dup9\n      dup9\n      call\n      swap4\n      pop\n      pop\n      pop\n      pop\n      iszero\n      dup1\n      iszero\n      tag_55\n      jumpi\n      returndatasize\n      0x00\n      dup1\n      returndatacopy\n      revert(0x00, returndatasize)\n    tag_55:\n      pop\n        /* \"contracts/lotter.sol\":1085:1086  0 */\n      0x00\n        /* \"contracts/lotter.sol\":1062:1087  new address payable[] (0) */\n      0xffffffffffffffff\n      dup2\n      gt\n      iszero\n      tag_56\n      jumpi\n      tag_57\n      tag_58\n      jump\t// in\n    tag_57:\n    tag_56:\n      mload(0x40)\n      swap1\n      dup1\n      dup3\n      mstore\n      dup1\n      0x20\n      mul\n      0x20\n      add\n      dup3\n      add\n      0x40\n      mstore\n      dup1\n      iszero\n      tag_59\n      jumpi\n      dup2\n      0x20\n      add\n      0x20\n      dup3\n      mul\n      dup1\n      calldatasize\n      dup4\n      calldatacopy\n      dup1\n      dup3\n      add\n      swap2\n      pop\n      pop\n      swap1\n      pop\n    tag_59:\n      pop\n        /* \"contracts/lotter.sol\":1053:1060  players */\n      0x01\n        /* \"contracts/lotter.sol\":1053:1087  players= new address payable[] (0) */\n      swap1\n      dup1\n      mload\n      swap1\n      0x20\n      add\n      swap1\n      tag_60\n      swap3\n      swap2\n      swap1\n      tag_61\n      jump\t// in\n    tag_60:\n      pop\n        /* \"contracts/lotter.sol\":769:1146  {... */\n      pop\n      pop\n        /* \"contracts/lotter.sol\":741:1146  function pickWinner() public{... */\n      jump\t// out\n        /* \"contracts/lotter.sol\":257:413  function participate() public payable {... */\n    tag_22:\n        /* \"contracts/lotter.sol\":327:333  10 wei */\n      0x0a\n        /* \"contracts/lotter.sol\":314:323  msg.value */\n      callvalue\n        /* \"contracts/lotter.sol\":314:333  msg.value == 10 wei */\n      eq\n        /* \"contracts/lotter.sol\":306:361  require(msg.value == 10 wei, \"please pay 1 ether only\") */\n      tag_63\n      jumpi\n      mload(0x40)\n      0x08c379a000000000000000000000000000000000000000000000000000000000\n      dup2\n      mstore\n      0x04\n      add\n      tag_64\n      swap1\n      tag_65\n      jump\t// in\n    tag_64:\n      mload(0x40)\n      dup1\n      swap2\n      sub\n      swap1\n      revert\n    tag_63:\n        /* \"contracts/lotter.sol\":372:379  players */\n      0x01\n        /* \"contracts/lotter.sol\":393:403  msg.sender */\n      caller\n        /* \"contracts/lotter.sol\":372:405  players.push(payable(msg.sender)) */\n      swap1\n      dup1\n      0x01\n      dup2\n      sload\n      add\n      dup1\n      dup3\n      sstore\n      dup1\n      swap2\n      pop\n      pop\n      0x01\n      swap1\n      sub\n      swap1\n      0x00\n      mstore\n      keccak256(0x00, 0x20)\n      add\n      0x00\n      swap1\n      swap2\n      swap1\n      swap2\n      swap1\n      swap2\n      0x0100\n      exp\n      dup2\n      sload\n      dup2\n      0xffffffffffffffffffffffffffffffffffffffff\n      mul\n      not\n      and\n      swap1\n      dup4\n      0xffffffffffffffffffffffffffffffffffffffff\n      and\n      mul\n      or\n      swap1\n      sstore\n      pop\n        /* \"contracts/lotter.sol\":257:413  function participate() public payable {... */\n      jump\t// out\n        /* \"contracts/lotter.sol\":161:190  address payable public winner */\n    tag_25:\n      0x02\n      0x00\n      swap1\n      sload\n      swap1\n      0x0100\n      exp\n      swap1\n      div\n      0xffffffffffffffffffffffffffffffffffffffff\n      and\n      dup2\n      jump\t// out\n        /* \"contracts/lotter.sol\":122:154  address payable[] public players */\n    tag_32:\n      0x01\n      dup2\n      dup2\n      sload\n      dup2\n      lt\n      tag_67\n      jumpi\n      0x00\n      dup1\n      revert\n    tag_67:\n      swap1\n      0x00\n      mstore\n      keccak256(0x00, 0x20)\n      add\n      0x00\n      swap2\n      pop\n      sload\n      swap1\n      0x0100\n      exp\n      swap1\n      div\n      0xffffffffffffffffffffffffffffffffffffffff\n      and\n      dup2\n      jump\t// out\n        /* \"contracts/lotter.sol\":581:735  function random() internal   view returns(uint){... */\n    tag_46:\n        /* \"contracts/lotter.sol\":623:627  uint */\n      0x00\n        /* \"contracts/lotter.sol\":675:691  block.difficulty */\n      prevrandao\n        /* \"contracts/lotter.sol\":692:707  block.timestamp */\n      timestamp\n        /* \"contracts/lotter.sol\":708:715  players */\n      0x01\n        /* \"contracts/lotter.sol\":708:722  players.length */\n      dup1\n      sload\n      swap1\n      pop\n        /* \"contracts/lotter.sol\":658:723  abi.encodePacked(block.difficulty,block.timestamp,players.length) */\n      add(0x20, mload(0x40))\n      tag_70\n      swap4\n      swap3\n      swap2\n      swap1\n      tag_71\n      jump\t// in\n    tag_70:\n      mload(0x40)\n      0x20\n      dup2\n      dup4\n      sub\n      sub\n      dup2\n      mstore\n      swap1\n      0x40\n      mstore\n        /* \"contracts/lotter.sol\":648:724  keccak256(abi.encodePacked(block.difficulty,block.timestamp,players.length)) */\n      dup1\n      mload\n      swap1\n      0x20\n      add\n      keccak256\n        /* \"contracts/lotter.sol\":643:725  uint(keccak256(abi.encodePacked(block.difficulty,block.timestamp,players.length))) */\n      0x00\n      shr\n        /* \"contracts/lotter.sol\":636:725  return uint(keccak256(abi.encodePacked(block.difficulty,block.timestamp,players.length))) */\n      swap1\n      pop\n        /* \"contracts/lotter.sol\":581:735  function random() internal   view returns(uint){... */\n      swap1\n      jump\t// out\n    tag_61:\n      dup3\n      dup1\n      sload\n      dup3\n      dup3\n      sstore\n      swap1\n      0x00\n      mstore\n      keccak256(0x00, 0x20)\n      swap1\n      dup2\n      add\n      swap3\n      dup3\n      iszero\n      tag_72\n      jumpi\n      swap2\n      0x20\n      mul\n      dup3\n      add\n    tag_73:\n      dup3\n      dup2\n      gt\n      iszero\n      tag_74\n      jumpi\n      dup3\n      mload\n      dup3\n      exp(0x0100, 0x00)\n      dup2\n      sload\n      dup2\n      0xffffffffffffffffffffffffffffffffffffffff\n      mul\n      not\n      and\n      swap1\n      dup4\n      0xffffffffffffffffffffffffffffffffffffffff\n      and\n      mul\n      or\n      swap1\n      sstore\n      pop\n      swap2\n      0x20\n      add\n      swap2\n      swap1\n      0x01\n      add\n      swap1\n      jump(tag_73)\n    tag_74:\n    tag_72:\n      pop\n      swap1\n      pop\n      tag_75\n      swap2\n      swap1\n      tag_76\n      jump\t// in\n    tag_75:\n      pop\n      swap1\n      jump\t// out\n    tag_76:\n    tag_77:\n      dup1\n      dup3\n      gt\n      iszero\n      tag_78\n      jumpi\n      0x00\n      dup2\n      0x00\n      swap1\n      sstore\n      pop\n      0x01\n      add\n      jump(tag_77)\n    tag_78:\n      pop\n      swap1\n      jump\t// out\n        /* \"#utility.yul\":7:84   */\n    tag_79:\n        /* \"#utility.yul\":44:51   */\n      0x00\n        /* \"#utility.yul\":73:78   */\n      dup2\n        /* \"#utility.yul\":62:78   */\n      swap1\n      pop\n        /* \"#utility.yul\":7:84   */\n      swap2\n      swap1\n      pop\n      jump\t// out\n        /* \"#utility.yul\":90:208   */\n    tag_80:\n        /* \"#utility.yul\":177:201   */\n      tag_106\n        /* \"#utility.yul\":195:200   */\n      dup2\n        /* \"#utility.yul\":177:201   */\n      tag_79\n      jump\t// in\n    tag_106:\n        /* \"#utility.yul\":172:175   */\n      dup3\n        /* \"#utility.yul\":165:202   */\n      mstore\n        /* \"#utility.yul\":90:208   */\n      pop\n      pop\n      jump\t// out\n        /* \"#utility.yul\":214:436   */\n    tag_12:\n        /* \"#utility.yul\":307:311   */\n      0x00\n        /* \"#utility.yul\":345:347   */\n      0x20\n        /* \"#utility.yul\":334:343   */\n      dup3\n        /* \"#utility.yul\":330:348   */\n      add\n        /* \"#utility.yul\":322:348   */\n      swap1\n      pop\n        /* \"#utility.yul\":358:429   */\n      tag_108\n        /* \"#utility.yul\":426:427   */\n      0x00\n        /* \"#utility.yul\":415:424   */\n      dup4\n        /* \"#utility.yul\":411:428   */\n      add\n        /* \"#utility.yul\":402:408   */\n      dup5\n        /* \"#utility.yul\":358:429   */\n      tag_80\n      jump\t// in\n    tag_108:\n        /* \"#utility.yul\":214:436   */\n      swap3\n      swap2\n      pop\n      pop\n      jump\t// out\n        /* \"#utility.yul\":442:568   */\n    tag_81:\n        /* \"#utility.yul\":479:486   */\n      0x00\n        /* \"#utility.yul\":519:561   */\n      0xffffffffffffffffffffffffffffffffffffffff\n        /* \"#utility.yul\":512:517   */\n      dup3\n        /* \"#utility.yul\":508:562   */\n      and\n        /* \"#utility.yul\":497:562   */\n      swap1\n      pop\n        /* \"#utility.yul\":442:568   */\n      swap2\n      swap1\n      pop\n      jump\t// out\n        /* \"#utility.yul\":574:670   */\n    tag_82:\n        /* \"#utility.yul\":611:618   */\n      0x00\n        /* \"#utility.yul\":640:664   */\n      tag_111\n        /* \"#utility.yul\":658:663   */\n      dup3\n        /* \"#utility.yul\":640:664   */\n      tag_81\n      jump\t// in\n    tag_111:\n        /* \"#utility.yul\":629:664   */\n      swap1\n      pop\n        /* \"#utility.yul\":574:670   */\n      swap2\n      swap1\n      pop\n      jump\t// out\n        /* \"#utility.yul\":676:794   */\n    tag_83:\n        /* \"#utility.yul\":763:787   */\n      tag_113\n        /* \"#utility.yul\":781:786   */\n      dup2\n        /* \"#utility.yul\":763:787   */\n      tag_82\n      jump\t// in\n    tag_113:\n        /* \"#utility.yul\":758:761   */\n      dup3\n        /* \"#utility.yul\":751:788   */\n      mstore\n        /* \"#utility.yul\":676:794   */\n      pop\n      pop\n      jump\t// out\n        /* \"#utility.yul\":800:1022   */\n    tag_17:\n        /* \"#utility.yul\":893:897   */\n      0x00\n        /* \"#utility.yul\":931:933   */\n      0x20\n        /* \"#utility.yul\":920:929   */\n      dup3\n        /* \"#utility.yul\":916:934   */\n      add\n        /* \"#utility.yul\":908:934   */\n      swap1\n      pop\n        /* \"#utility.yul\":944:1015   */\n      tag_115\n        /* \"#utility.yul\":1012:1013   */\n      0x00\n        /* \"#utility.yul\":1001:1010   */\n      dup4\n        /* \"#utility.yul\":997:1014   */\n      add\n        /* \"#utility.yul\":988:994   */\n      dup5\n        /* \"#utility.yul\":944:1015   */\n      tag_83\n      jump\t// in\n    tag_115:\n        /* \"#utility.yul\":800:1022   */\n      swap3\n      swap2\n      pop\n      pop\n      jump\t// out\n        /* \"#utility.yul\":1028:1132   */\n    tag_84:\n        /* \"#utility.yul\":1073:1080   */\n      0x00\n        /* \"#utility.yul\":1102:1126   */\n      tag_117\n        /* \"#utility.yul\":1120:1125   */\n      dup3\n        /* \"#utility.yul\":1102:1126   */\n      tag_81\n      jump\t// in\n    tag_117:\n        /* \"#utility.yul\":1091:1126   */\n      swap1\n      pop\n        /* \"#utility.yul\":1028:1132   */\n      swap2\n      swap1\n      pop\n      jump\t// out\n        /* \"#utility.yul\":1138:1280   */\n    tag_85:\n        /* \"#utility.yul\":1241:1273   */\n      tag_119\n        /* \"#utility.yul\":1267:1272   */\n      dup2\n        /* \"#utility.yul\":1241:1273   */\n      tag_84\n      jump\t// in\n    tag_119:\n        /* \"#utility.yul\":1236:1239   */\n      dup3\n        /* \"#utility.yul\":1229:1274   */\n      mstore\n        /* \"#utility.yul\":1138:1280   */\n      pop\n      pop\n      jump\t// out\n        /* \"#utility.yul\":1286:1540   */\n    tag_27:\n        /* \"#utility.yul\":1395:1399   */\n      0x00\n        /* \"#utility.yul\":1433:1435   */\n      0x20\n        /* \"#utility.yul\":1422:1431   */\n      dup3\n        /* \"#utility.yul\":1418:1436   */\n      add\n        /* \"#utility.yul\":1410:1436   */\n      swap1\n      pop\n        /* \"#utility.yul\":1446:1533   */\n      tag_121\n        /* \"#utility.yul\":1530:1531   */\n      0x00\n        /* \"#utility.yul\":1519:1528   */\n      dup4\n        /* \"#utility.yul\":1515:1532   */\n      add\n        /* \"#utility.yul\":1506:1512   */\n      dup5\n        /* \"#utility.yul\":1446:1533   */\n      tag_85\n      jump\t// in\n    tag_121:\n        /* \"#utility.yul\":1286:1540   */\n      swap3\n      swap2\n      pop\n      pop\n      jump\t// out\n        /* \"#utility.yul\":1627:1744   */\n    tag_87:\n        /* \"#utility.yul\":1736:1737   */\n      0x00\n        /* \"#utility.yul\":1733:1734   */\n      dup1\n        /* \"#utility.yul\":1726:1738   */\n      revert\n        /* \"#utility.yul\":1873:1995   */\n    tag_89:\n        /* \"#utility.yul\":1946:1970   */\n      tag_126\n        /* \"#utility.yul\":1964:1969   */\n      dup2\n        /* \"#utility.yul\":1946:1970   */\n      tag_79\n      jump\t// in\n    tag_126:\n        /* \"#utility.yul\":1939:1944   */\n      dup2\n        /* \"#utility.yul\":1936:1971   */\n      eq\n        /* \"#utility.yul\":1926:1989   */\n      tag_127\n      jumpi\n        /* \"#utility.yul\":1985:1986   */\n      0x00\n        /* \"#utility.yul\":1982:1983   */\n      dup1\n        /* \"#utility.yul\":1975:1987   */\n      revert\n        /* \"#utility.yul\":1926:1989   */\n    tag_127:\n        /* \"#utility.yul\":1873:1995   */\n      pop\n      jump\t// out\n        /* \"#utility.yul\":2001:2140   */\n    tag_90:\n        /* \"#utility.yul\":2047:2052   */\n      0x00\n        /* \"#utility.yul\":2085:2091   */\n      dup2\n        /* \"#utility.yul\":2072:2092   */\n      calldataload\n        /* \"#utility.yul\":2063:2092   */\n      swap1\n      pop\n        /* \"#utility.yul\":2101:2134   */\n      tag_129\n        /* \"#utility.yul\":2128:2133   */\n      dup2\n        /* \"#utility.yul\":2101:2134   */\n      tag_89\n      jump\t// in\n    tag_129:\n        /* \"#utility.yul\":2001:2140   */\n      swap3\n      swap2\n      pop\n      pop\n      jump\t// out\n        /* \"#utility.yul\":2146:2475   */\n    tag_31:\n        /* \"#utility.yul\":2205:2211   */\n      0x00\n        /* \"#utility.yul\":2254:2256   */\n      0x20\n        /* \"#utility.yul\":2242:2251   */\n      dup3\n        /* \"#utility.yul\":2233:2240   */\n      dup5\n        /* \"#utility.yul\":2229:2252   */\n      sub\n        /* \"#utility.yul\":2225:2257   */\n      slt\n        /* \"#utility.yul\":2222:2341   */\n      iszero\n      tag_131\n      jumpi\n        /* \"#utility.yul\":2260:2339   */\n      tag_132\n      tag_87\n      jump\t// in\n    tag_132:\n        /* \"#utility.yul\":2222:2341   */\n    tag_131:\n        /* \"#utility.yul\":2380:2381   */\n      0x00\n        /* \"#utility.yul\":2405:2458   */\n      tag_133\n        /* \"#utility.yul\":2450:2457   */\n      dup5\n        /* \"#utility.yul\":2441:2447   */\n      dup3\n        /* \"#utility.yul\":2430:2439   */\n      dup6\n        /* \"#utility.yul\":2426:2448   */\n      add\n        /* \"#utility.yul\":2405:2458   */\n      tag_90\n      jump\t// in\n    tag_133:\n        /* \"#utility.yul\":2395:2458   */\n      swap2\n      pop\n        /* \"#utility.yul\":2351:2468   */\n      pop\n        /* \"#utility.yul\":2146:2475   */\n      swap3\n      swap2\n      pop\n      pop\n      jump\t// out\n        /* \"#utility.yul\":2481:2650   */\n    tag_91:\n        /* \"#utility.yul\":2565:2576   */\n      0x00\n        /* \"#utility.yul\":2599:2605   */\n      dup3\n        /* \"#utility.yul\":2594:2597   */\n      dup3\n        /* \"#utility.yul\":2587:2606   */\n      mstore\n        /* \"#utility.yul\":2639:2643   */\n      0x20\n        /* \"#utility.yul\":2634:2637   */\n      dup3\n        /* \"#utility.yul\":2630:2644   */\n      add\n        /* \"#utility.yul\":2615:2644   */\n      swap1\n      pop\n        /* \"#utility.yul\":2481:2650   */\n      swap3\n      swap2\n      pop\n      pop\n      jump\t// out\n        /* \"#utility.yul\":2656:2825   */\n    tag_92:\n        /* \"#utility.yul\":2796:2817   */\n      0x796f7520617265206e6f74206d616e6167657200000000000000000000000000\n        /* \"#utility.yul\":2792:2793   */\n      0x00\n        /* \"#utility.yul\":2784:2790   */\n      dup3\n        /* \"#utility.yul\":2780:2794   */\n      add\n        /* \"#utility.yul\":2773:2818   */\n      mstore\n        /* \"#utility.yul\":2656:2825   */\n      pop\n      jump\t// out\n        /* \"#utility.yul\":2831:3197   */\n    tag_93:\n        /* \"#utility.yul\":2973:2976   */\n      0x00\n        /* \"#utility.yul\":2994:3061   */\n      tag_137\n        /* \"#utility.yul\":3058:3060   */\n      0x13\n        /* \"#utility.yul\":3053:3056   */\n      dup4\n        /* \"#utility.yul\":2994:3061   */\n      tag_91\n      jump\t// in\n    tag_137:\n        /* \"#utility.yul\":2987:3061   */\n      swap2\n      pop\n        /* \"#utility.yul\":3070:3163   */\n      tag_138\n        /* \"#utility.yul\":3159:3162   */\n      dup3\n        /* \"#utility.yul\":3070:3163   */\n      tag_92\n      jump\t// in\n    tag_138:\n        /* \"#utility.yul\":3188:3190   */\n      0x20\n        /* \"#utility.yul\":3183:3186   */\n      dup3\n        /* \"#utility.yul\":3179:3191   */\n      add\n        /* \"#utility.yul\":3172:3191   */\n      swap1\n      pop\n        /* \"#utility.yul\":2831:3197   */\n      swap2\n      swap1\n      pop\n      jump\t// out\n        /* \"#utility.yul\":3203:3622   */\n    tag_37:\n        /* \"#utility.yul\":3369:3373   */\n      0x00\n        /* \"#utility.yul\":3407:3409   */\n      0x20\n        /* \"#utility.yul\":3396:3405   */\n      dup3\n        /* \"#utility.yul\":3392:3410   */\n      add\n        /* \"#utility.yul\":3384:3410   */\n      swap1\n      pop\n        /* \"#utility.yul\":3456:3465   */\n      dup2\n        /* \"#utility.yul\":3450:3454   */\n      dup2\n        /* \"#utility.yul\":3446:3466   */\n      sub\n        /* \"#utility.yul\":3442:3443   */\n      0x00\n        /* \"#utility.yul\":3431:3440   */\n      dup4\n        /* \"#utility.yul\":3427:3444   */\n      add\n        /* \"#utility.yul\":3420:3467   */\n      mstore\n        /* \"#utility.yul\":3484:3615   */\n      tag_140\n        /* \"#utility.yul\":3610:3614   */\n      dup2\n        /* \"#utility.yul\":3484:3615   */\n      tag_93\n      jump\t// in\n    tag_140:\n        /* \"#utility.yul\":3476:3615   */\n      swap1\n      pop\n        /* \"#utility.yul\":3203:3622   */\n      swap2\n      swap1\n      pop\n      jump\t// out\n        /* \"#utility.yul\":3628:3801   */\n    tag_94:\n        /* \"#utility.yul\":3768:3793   */\n      0x796f7520617265206e6f7420746865206d616e61676572000000000000000000\n        /* \"#utility.yul\":3764:3765   */\n      0x00\n        /* \"#utility.yul\":3756:3762   */\n      dup3\n        /* \"#utility.yul\":3752:3766   */\n      add\n        /* \"#utility.yul\":3745:3794   */\n      mstore\n        /* \"#utility.yul\":3628:3801   */\n      pop\n      jump\t// out\n        /* \"#utility.yul\":3807:4173   */\n    tag_95:\n        /* \"#utility.yul\":3949:3952   */\n      0x00\n        /* \"#utility.yul\":3970:4037   */\n      tag_143\n        /* \"#utility.yul\":4034:4036   */\n      0x17\n        /* \"#utility.yul\":4029:4032   */\n      dup4\n        /* \"#utility.yul\":3970:4037   */\n      tag_91\n      jump\t// in\n    tag_143:\n        /* \"#utility.yul\":3963:4037   */\n      swap2\n      pop\n        /* \"#utility.yul\":4046:4139   */\n      tag_144\n        /* \"#utility.yul\":4135:4138   */\n      dup3\n        /* \"#utility.yul\":4046:4139   */\n      tag_94\n      jump\t// in\n    tag_144:\n        /* \"#utility.yul\":4164:4166   */\n      0x20\n        /* \"#utility.yul\":4159:4162   */\n      dup3\n        /* \"#utility.yul\":4155:4167   */\n      add\n        /* \"#utility.yul\":4148:4167   */\n      swap1\n      pop\n        /* \"#utility.yul\":3807:4173   */\n      swap2\n      swap1\n      pop\n      jump\t// out\n        /* \"#utility.yul\":4179:4598   */\n    tag_41:\n        /* \"#utility.yul\":4345:4349   */\n      0x00\n        /* \"#utility.yul\":4383:4385   */\n      0x20\n        /* \"#utility.yul\":4372:4381   */\n      dup3\n        /* \"#utility.yul\":4368:4386   */\n      add\n        /* \"#utility.yul\":4360:4386   */\n      swap1\n      pop\n        /* \"#utility.yul\":4432:4441   */\n      dup2\n        /* \"#utility.yul\":4426:4430   */\n      dup2\n        /* \"#utility.yul\":4422:4442   */\n      sub\n        /* \"#utility.yul\":4418:4419   */\n      0x00\n        /* \"#utility.yul\":4407:4416   */\n      dup4\n        /* \"#utility.yul\":4403:4420   */\n      add\n        /* \"#utility.yul\":4396:4443   */\n      mstore\n        /* \"#utility.yul\":4460:4591   */\n      tag_146\n        /* \"#utility.yul\":4586:4590   */\n      dup2\n        /* \"#utility.yul\":4460:4591   */\n      tag_95\n      jump\t// in\n    tag_146:\n        /* \"#utility.yul\":4452:4591   */\n      swap1\n      pop\n        /* \"#utility.yul\":4179:4598   */\n      swap2\n      swap1\n      pop\n      jump\t// out\n        /* \"#utility.yul\":4604:4777   */\n    tag_96:\n        /* \"#utility.yul\":4744:4769   */\n      0x706c617965727320617265206c657373207468616e2033000000000000000000\n        /* \"#utility.yul\":4740:4741   */\n      0x00\n        /* \"#utility.yul\":4732:4738   */\n      dup3\n        /* \"#utility.yul\":4728:4742   */\n      add\n        /* \"#utility.yul\":4721:4770   */\n      mstore\n        /* \"#utility.yul\":4604:4777   */\n      pop\n      jump\t// out\n        /* \"#utility.yul\":4783:5149   */\n    tag_97:\n        /* \"#utility.yul\":4925:4928   */\n      0x00\n        /* \"#utility.yul\":4946:5013   */\n      tag_149\n        /* \"#utility.yul\":5010:5012   */\n      0x17\n        /* \"#utility.yul\":5005:5008   */\n      dup4\n        /* \"#utility.yul\":4946:5013   */\n      tag_91\n      jump\t// in\n    tag_149:\n        /* \"#utility.yul\":4939:5013   */\n      swap2\n      pop\n        /* \"#utility.yul\":5022:5115   */\n      tag_150\n        /* \"#utility.yul\":5111:5114   */\n      dup3\n        /* \"#utility.yul\":5022:5115   */\n      tag_96\n      jump\t// in\n    tag_150:\n        /* \"#utility.yul\":5140:5142   */\n      0x20\n        /* \"#utility.yul\":5135:5138   */\n      dup3\n        /* \"#utility.yul\":5131:5143   */\n      add\n        /* \"#utility.yul\":5124:5143   */\n      swap1\n      pop\n        /* \"#utility.yul\":4783:5149   */\n      swap2\n      swap1\n      pop\n      jump\t// out\n        /* \"#utility.yul\":5155:5574   */\n    tag_44:\n        /* \"#utility.yul\":5321:5325   */\n      0x00\n        /* \"#utility.yul\":5359:5361   */\n      0x20\n        /* \"#utility.yul\":5348:5357   */\n      dup3\n        /* \"#utility.yul\":5344:5362   */\n      add\n        /* \"#utility.yul\":5336:5362   */\n      swap1\n      pop\n        /* \"#utility.yul\":5408:5417   */\n      dup2\n        /* \"#utility.yul\":5402:5406   */\n      dup2\n        /* \"#utility.yul\":5398:5418   */\n      sub\n        /* \"#utility.yul\":5394:5395   */\n      0x00\n        /* \"#utility.yul\":5383:5392   */\n      dup4\n        /* \"#utility.yul\":5379:5396   */\n      add\n        /* \"#utility.yul\":5372:5419   */\n      mstore\n        /* \"#utility.yul\":5436:5567   */\n      tag_152\n        /* \"#utility.yul\":5562:5566   */\n      dup2\n        /* \"#utility.yul\":5436:5567   */\n      tag_97\n      jump\t// in\n    tag_152:\n        /* \"#utility.yul\":5428:5567   */\n      swap1\n      pop\n        /* \"#utility.yul\":5155:5574   */\n      swap2\n      swap1\n      pop\n      jump\t// out\n        /* \"#utility.yul\":5580:5760   */\n    tag_98:\n        /* \"#utility.yul\":5628:5705   */\n      0x4e487b7100000000000000000000000000000000000000000000000000000000\n        /* \"#utility.yul\":5625:5626   */\n      0x00\n        /* \"#utility.yul\":5618:5706   */\n      mstore\n        /* \"#utility.yul\":5725:5729   */\n      0x12\n        /* \"#utility.yul\":5722:5723   */\n      0x04\n        /* \"#utility.yul\":5715:5730   */\n      mstore\n        /* \"#utility.yul\":5749:5753   */\n      0x24\n        /* \"#utility.yul\":5746:5747   */\n      0x00\n        /* \"#utility.yul\":5739:5754   */\n      revert\n        /* \"#utility.yul\":5766:5942   */\n    tag_48:\n        /* \"#utility.yul\":5798:5799   */\n      0x00\n        /* \"#utility.yul\":5815:5835   */\n      tag_155\n        /* \"#utility.yul\":5833:5834   */\n      dup3\n        /* \"#utility.yul\":5815:5835   */\n      tag_79\n      jump\t// in\n    tag_155:\n        /* \"#utility.yul\":5810:5835   */\n      swap2\n      pop\n        /* \"#utility.yul\":5849:5869   */\n      tag_156\n        /* \"#utility.yul\":5867:5868   */\n      dup4\n        /* \"#utility.yul\":5849:5869   */\n      tag_79\n      jump\t// in\n    tag_156:\n        /* \"#utility.yul\":5844:5869   */\n      swap3\n      pop\n        /* \"#utility.yul\":5888:5889   */\n      dup3\n        /* \"#utility.yul\":5878:5913   */\n      tag_157\n      jumpi\n        /* \"#utility.yul\":5893:5911   */\n      tag_158\n      tag_98\n      jump\t// in\n    tag_158:\n        /* \"#utility.yul\":5878:5913   */\n    tag_157:\n        /* \"#utility.yul\":5934:5935   */\n      dup3\n        /* \"#utility.yul\":5931:5932   */\n      dup3\n        /* \"#utility.yul\":5927:5936   */\n      mod\n        /* \"#utility.yul\":5922:5936   */\n      swap1\n      pop\n        /* \"#utility.yul\":5766:5942   */\n      swap3\n      swap2\n      pop\n      pop\n      jump\t// out\n        /* \"#utility.yul\":5948:6128   */\n    tag_51:\n        /* \"#utility.yul\":5996:6073   */\n      0x4e487b7100000000000000000000000000000000000000000000000000000000\n        /* \"#utility.yul\":5993:5994   */\n      0x00\n        /* \"#utility.yul\":5986:6074   */\n      mstore\n        /* \"#utility.yul\":6093:6097   */\n      0x32\n        /* \"#utility.yul\":6090:6091   */\n      0x04\n        /* \"#utility.yul\":6083:6098   */\n      mstore\n        /* \"#utility.yul\":6117:6121   */\n      0x24\n        /* \"#utility.yul\":6114:6115   */\n      0x00\n        /* \"#utility.yul\":6107:6122   */\n      revert\n        /* \"#utility.yul\":6134:6314   */\n    tag_58:\n        /* \"#utility.yul\":6182:6259   */\n      0x4e487b7100000000000000000000000000000000000000000000000000000000\n        /* \"#utility.yul\":6179:6180   */\n      0x00\n        /* \"#utility.yul\":6172:6260   */\n      mstore\n        /* \"#utility.yul\":6279:6283   */\n      0x41\n        /* \"#utility.yul\":6276:6277   */\n      0x04\n        /* \"#utility.yul\":6269:6284   */\n      mstore\n        /* \"#utility.yul\":6303:6307   */\n      0x24\n        /* \"#utility.yul\":6300:6301   */\n      0x00\n        /* \"#utility.yul\":6293:6308   */\n      revert\n        /* \"#utility.yul\":6320:6493   */\n    tag_99:\n        /* \"#utility.yul\":6460:6485   */\n      0x706c65617365207061792031206574686572206f6e6c79000000000000000000\n        /* \"#utility.yul\":6456:6457   */\n      0x00\n        /* \"#utility.yul\":6448:6454   */\n      dup3\n        /* \"#utility.yul\":6444:6458   */\n      add\n        /* \"#utility.yul\":6437:6486   */\n      mstore\n        /* \"#utility.yul\":6320:6493   */\n      pop\n      jump\t// out\n        /* \"#utility.yul\":6499:6865   */\n    tag_100:\n        /* \"#utility.yul\":6641:6644   */\n      0x00\n        /* \"#utility.yul\":6662:6729   */\n      tag_163\n        /* \"#utility.yul\":6726:6728   */\n      0x17\n        /* \"#utility.yul\":6721:6724   */\n      dup4\n        /* \"#utility.yul\":6662:6729   */\n      tag_91\n      jump\t// in\n    tag_163:\n        /* \"#utility.yul\":6655:6729   */\n      swap2\n      pop\n        /* \"#utility.yul\":6738:6831   */\n      tag_164\n        /* \"#utility.yul\":6827:6830   */\n      dup3\n        /* \"#utility.yul\":6738:6831   */\n      tag_99\n      jump\t// in\n    tag_164:\n        /* \"#utility.yul\":6856:6858   */\n      0x20\n        /* \"#utility.yul\":6851:6854   */\n      dup3\n        /* \"#utility.yul\":6847:6859   */\n      add\n        /* \"#utility.yul\":6840:6859   */\n      swap1\n      pop\n        /* \"#utility.yul\":6499:6865   */\n      swap2\n      swap1\n      pop\n      jump\t// out\n        /* \"#utility.yul\":6871:7290   */\n    tag_65:\n        /* \"#utility.yul\":7037:7041   */\n      0x00\n        /* \"#utility.yul\":7075:7077   */\n      0x20\n        /* \"#utility.yul\":7064:7073   */\n      dup3\n        /* \"#utility.yul\":7060:7078   */\n      add\n        /* \"#utility.yul\":7052:7078   */\n      swap1\n      pop\n        /* \"#utility.yul\":7124:7133   */\n      dup2\n        /* \"#utility.yul\":7118:7122   */\n      dup2\n        /* \"#utility.yul\":7114:7134   */\n      sub\n        /* \"#utility.yul\":7110:7111   */\n      0x00\n        /* \"#utility.yul\":7099:7108   */\n      dup4\n        /* \"#utility.yul\":7095:7112   */\n      add\n        /* \"#utility.yul\":7088:7135   */\n      mstore\n        /* \"#utility.yul\":7152:7283   */\n      tag_166\n        /* \"#utility.yul\":7278:7282   */\n      dup2\n        /* \"#utility.yul\":7152:7283   */\n      tag_100\n      jump\t// in\n    tag_166:\n        /* \"#utility.yul\":7144:7283   */\n      swap1\n      pop\n        /* \"#utility.yul\":6871:7290   */\n      swap2\n      swap1\n      pop\n      jump\t// out\n        /* \"#utility.yul\":7296:7375   */\n    tag_101:\n        /* \"#utility.yul\":7335:7342   */\n      0x00\n        /* \"#utility.yul\":7364:7369   */\n      dup2\n        /* \"#utility.yul\":7353:7369   */\n      swap1\n      pop\n        /* \"#utility.yul\":7296:7375   */\n      swap2\n      swap1\n      pop\n      jump\t// out\n        /* \"#utility.yul\":7381:7538   */\n    tag_102:\n        /* \"#utility.yul\":7486:7531   */\n      tag_169\n        /* \"#utility.yul\":7506:7530   */\n      tag_170\n        /* \"#utility.yul\":7524:7529   */\n      dup3\n        /* \"#utility.yul\":7506:7530   */\n      tag_79\n      jump\t// in\n    tag_170:\n        /* \"#utility.yul\":7486:7531   */\n      tag_101\n      jump\t// in\n    tag_169:\n        /* \"#utility.yul\":7481:7484   */\n      dup3\n        /* \"#utility.yul\":7474:7532   */\n      mstore\n        /* \"#utility.yul\":7381:7538   */\n      pop\n      pop\n      jump\t// out\n        /* \"#utility.yul\":7544:8082   */\n    tag_71:\n        /* \"#utility.yul\":7712:7715   */\n      0x00\n        /* \"#utility.yul\":7727:7802   */\n      tag_172\n        /* \"#utility.yul\":7798:7801   */\n      dup3\n        /* \"#utility.yul\":7789:7795   */\n      dup7\n        /* \"#utility.yul\":7727:7802   */\n      tag_102\n      jump\t// in\n    tag_172:\n        /* \"#utility.yul\":7827:7829   */\n      0x20\n        /* \"#utility.yul\":7822:7825   */\n      dup3\n        /* \"#utility.yul\":7818:7830   */\n      add\n        /* \"#utility.yul\":7811:7830   */\n      swap2\n      pop\n        /* \"#utility.yul\":7840:7915   */\n      tag_173\n        /* \"#utility.yul\":7911:7914   */\n      dup3\n        /* \"#utility.yul\":7902:7908   */\n      dup6\n        /* \"#utility.yul\":7840:7915   */\n      tag_102\n      jump\t// in\n    tag_173:\n        /* \"#utility.yul\":7940:7942   */\n      0x20\n        /* \"#utility.yul\":7935:7938   */\n      dup3\n        /* \"#utility.yul\":7931:7943   */\n      add\n        /* \"#utility.yul\":7924:7943   */\n      swap2\n      pop\n        /* \"#utility.yul\":7953:8028   */\n      tag_174\n        /* \"#utility.yul\":8024:8027   */\n      dup3\n        /* \"#utility.yul\":8015:8021   */\n      dup5\n        /* \"#utility.yul\":7953:8028   */\n      tag_102\n      jump\t// in\n    tag_174:\n        /* \"#utility.yul\":8053:8055   */\n      0x20\n        /* \"#utility.yul\":8048:8051   */\n      dup3\n        /* \"#utility.yul\":8044:8056   */\n      add\n        /* \"#utility.yul\":8037:8056   */\n      swap2\n      pop\n        /* \"#utility.yul\":8073:8076   */\n      dup2\n        /* \"#utility.yul\":8066:8076   */\n      swap1\n      pop\n        /* \"#utility.yul\":7544:8082   */\n      swap5\n      swap4\n      pop\n      pop\n      pop\n      pop\n      jump\t// out\n\n    auxdata: 0xa26469706673582212207f48625a56f7f988cafc77083a4d8b1d29e2f9b674df8dde32b80a6cad3a07e964736f6c634300081a0033\n}\n",
				"bytecode": {
					"linkReferences": {},
					"object": "6080604052348015600e575f80fd5b50335f806101000a81548173ffffffffffffffffffffffffffffffffffffffff021916908373ffffffffffffffffffffffffffffffffffffffff160217905550610a1b8061005b5f395ff3fe608060405260043610610054575f3560e01c806312065fe014610058578063481c6a75146100825780635d495aea146100ac578063d11711a2146100c2578063dfbf53ae146100cc578063f71d96cb146100f6575b5f80fd5b348015610063575f80fd5b5061006c610132565b604051610079919061061f565b60405180910390f35b34801561008d575f80fd5b506100966101c6565b6040516100a39190610677565b60405180910390f35b3480156100b7575f80fd5b506100c06101e9565b005b6100ca610428565b005b3480156100d7575f80fd5b506100e06104cd565b6040516100ed91906106b0565b60405180910390f35b348015610101575f80fd5b5061011c600480360381019061011791906106f7565b6104f2565b60405161012991906106b0565b60405180910390f35b5f3373ffffffffffffffffffffffffffffffffffffffff165f8054906101000a900473ffffffffffffffffffffffffffffffffffffffff1673ffffffffffffffffffffffffffffffffffffffff16146101c0576040517f08c379a00000000000000000000000000000000000000000000000000000000081526004016101b79061077c565b60405180910390fd5b47905090565b5f8054906101000a900473ffffffffffffffffffffffffffffffffffffffff1681565b3373ffffffffffffffffffffffffffffffffffffffff165f8054906101000a900473ffffffffffffffffffffffffffffffffffffffff1673ffffffffffffffffffffffffffffffffffffffff1614610276576040517f08c379a000000000000000000000000000000000000000000000000000000000815260040161026d906107e4565b60405180910390fd5b600360018054905010156102bf576040517f08c379a00000000000000000000000000000000000000000000000000000000081526004016102b69061084c565b60405180910390fd5b5f6102c861052d565b90505f600180549050826102dc9190610897565b9050600181815481106102f2576102f16108c7565b5b905f5260205f20015f9054906101000a900473ffffffffffffffffffffffffffffffffffffffff1660025f6101000a81548173ffffffffffffffffffffffffffffffffffffffff021916908373ffffffffffffffffffffffffffffffffffffffff16021790555060025f9054906101000a900473ffffffffffffffffffffffffffffffffffffffff1673ffffffffffffffffffffffffffffffffffffffff166108fc61039c610132565b90811502906040515f60405180830381858888f193505050501580156103c4573d5f803e3d5ffd5b505f67ffffffffffffffff8111156103df576103de6108f4565b5b60405190808252806020026020018201604052801561040d5781602001602082028036833780820191505090505b5060019080519060200190610423929190610565565b505050565b600a341461046b576040517f08c379a00000000000000000000000000000000000000000000000000000000081526004016104629061096b565b60405180910390fd5b600133908060018154018082558091505060019003905f5260205f20015f9091909190916101000a81548173ffffffffffffffffffffffffffffffffffffffff021916908373ffffffffffffffffffffffffffffffffffffffff160217905550565b60025f9054906101000a900473ffffffffffffffffffffffffffffffffffffffff1681565b60018181548110610501575f80fd5b905f5260205f20015f915054906101000a900473ffffffffffffffffffffffffffffffffffffffff1681565b5f4442600180549050604051602001610548939291906109a9565b604051602081830303815290604052805190602001205f1c905090565b828054828255905f5260205f209081019282156105db579160200282015b828111156105da578251825f6101000a81548173ffffffffffffffffffffffffffffffffffffffff021916908373ffffffffffffffffffffffffffffffffffffffff16021790555091602001919060010190610583565b5b5090506105e891906105ec565b5090565b5b80821115610603575f815f9055506001016105ed565b5090565b5f819050919050565b61061981610607565b82525050565b5f6020820190506106325f830184610610565b92915050565b5f73ffffffffffffffffffffffffffffffffffffffff82169050919050565b5f61066182610638565b9050919050565b61067181610657565b82525050565b5f60208201905061068a5f830184610668565b92915050565b5f61069a82610638565b9050919050565b6106aa81610690565b82525050565b5f6020820190506106c35f8301846106a1565b92915050565b5f80fd5b6106d681610607565b81146106e0575f80fd5b50565b5f813590506106f1816106cd565b92915050565b5f6020828403121561070c5761070b6106c9565b5b5f610719848285016106e3565b91505092915050565b5f82825260208201905092915050565b7f796f7520617265206e6f74206d616e61676572000000000000000000000000005f82015250565b5f610766601383610722565b915061077182610732565b602082019050919050565b5f6020820190508181035f8301526107938161075a565b9050919050565b7f796f7520617265206e6f7420746865206d616e616765720000000000000000005f82015250565b5f6107ce601783610722565b91506107d98261079a565b602082019050919050565b5f6020820190508181035f8301526107fb816107c2565b9050919050565b7f706c617965727320617265206c657373207468616e20330000000000000000005f82015250565b5f610836601783610722565b915061084182610802565b602082019050919050565b5f6020820190508181035f8301526108638161082a565b9050919050565b7f4e487b71000000000000000000000000000000000000000000000000000000005f52601260045260245ffd5b5f6108a182610607565b91506108ac83610607565b9250826108bc576108bb61086a565b5b828206905092915050565b7f4e487b71000000000000000000000000000000000000000000000000000000005f52603260045260245ffd5b7f4e487b71000000000000000000000000000000000000000000000000000000005f52604160045260245ffd5b7f706c65617365207061792031206574686572206f6e6c790000000000000000005f82015250565b5f610955601783610722565b915061096082610921565b602082019050919050565b5f6020820190508181035f83015261098281610949565b9050919050565b5f819050919050565b6109a361099e82610607565b610989565b82525050565b5f6109b48286610992565b6020820191506109c48285610992565b6020820191506109d48284610992565b60208201915081905094935050505056fea26469706673582212207f48625a56f7f988cafc77083a4d8b1d29e2f9b674df8dde32b80a6cad3a07e964736f6c634300081a0033",
					"opcodes": "PUSH1 0x80 PUSH1 0x40 MSTORE CALLVALUE DUP1 ISZERO PUSH1 0xE JUMPI PUSH0 DUP1 REVERT JUMPDEST POP CALLER PUSH0 DUP1 PUSH2 0x100 EXP DUP2 SLOAD DUP2 PUSH20 0xFFFFFFFFFFFFFFFFFFFFFFFFFFFFFFFFFFFFFFFF MUL NOT AND SWAP1 DUP4 PUSH20 0xFFFFFFFFFFFFFFFFFFFFFFFFFFFFFFFFFFFFFFFF AND MUL OR SWAP1 SSTORE POP PUSH2 0xA1B DUP1 PUSH2 0x5B PUSH0 CODECOPY PUSH0 RETURN INVALID PUSH1 0x80 PUSH1 0x40 MSTORE PUSH1 0x4 CALLDATASIZE LT PUSH2 0x54 JUMPI PUSH0 CALLDATALOAD PUSH1 0xE0 SHR DUP1 PUSH4 0x12065FE0 EQ PUSH2 0x58 JUMPI DUP1 PUSH4 0x481C6A75 EQ PUSH2 0x82 JUMPI DUP1 PUSH4 0x5D495AEA EQ PUSH2 0xAC JUMPI DUP1 PUSH4 0xD11711A2 EQ PUSH2 0xC2 JUMPI DUP1 PUSH4 0xDFBF53AE EQ PUSH2 0xCC JUMPI DUP1 PUSH4 0xF71D96CB EQ PUSH2 0xF6 JUMPI JUMPDEST PUSH0 DUP1 REVERT JUMPDEST CALLVALUE DUP1 ISZERO PUSH2 0x63 JUMPI PUSH0 DUP1 REVERT JUMPDEST POP PUSH2 0x6C PUSH2 0x132 JUMP JUMPDEST PUSH1 0x40 MLOAD PUSH2 0x79 SWAP2 SWAP1 PUSH2 0x61F JUMP JUMPDEST PUSH1 0x40 MLOAD DUP1 SWAP2 SUB SWAP1 RETURN JUMPDEST CALLVALUE DUP1 ISZERO PUSH2 0x8D JUMPI PUSH0 DUP1 REVERT JUMPDEST POP PUSH2 0x96 PUSH2 0x1C6 JUMP JUMPDEST PUSH1 0x40 MLOAD PUSH2 0xA3 SWAP2 SWAP1 PUSH2 0x677 JUMP JUMPDEST PUSH1 0x40 MLOAD DUP1 SWAP2 SUB SWAP1 RETURN JUMPDEST CALLVALUE DUP1 ISZERO PUSH2 0xB7 JUMPI PUSH0 DUP1 REVERT JUMPDEST POP PUSH2 0xC0 PUSH2 0x1E9 JUMP JUMPDEST STOP JUMPDEST PUSH2 0xCA PUSH2 0x428 JUMP JUMPDEST STOP JUMPDEST CALLVALUE DUP1 ISZERO PUSH2 0xD7 JUMPI PUSH0 DUP1 REVERT JUMPDEST POP PUSH2 0xE0 PUSH2 0x4CD JUMP JUMPDEST PUSH1 0x40 MLOAD PUSH2 0xED SWAP2 SWAP1 PUSH2 0x6B0 JUMP JUMPDEST PUSH1 0x40 MLOAD DUP1 SWAP2 SUB SWAP1 RETURN JUMPDEST CALLVALUE DUP1 ISZERO PUSH2 0x101 JUMPI PUSH0 DUP1 REVERT JUMPDEST POP PUSH2 0x11C PUSH1 0x4 DUP1 CALLDATASIZE SUB DUP2 ADD SWAP1 PUSH2 0x117 SWAP2 SWAP1 PUSH2 0x6F7 JUMP JUMPDEST PUSH2 0x4F2 JUMP JUMPDEST PUSH1 0x40 MLOAD PUSH2 0x129 SWAP2 SWAP1 PUSH2 0x6B0 JUMP JUMPDEST PUSH1 0x40 MLOAD DUP1 SWAP2 SUB SWAP1 RETURN JUMPDEST PUSH0 CALLER PUSH20 0xFFFFFFFFFFFFFFFFFFFFFFFFFFFFFFFFFFFFFFFF AND PUSH0 DUP1 SLOAD SWAP1 PUSH2 0x100 EXP SWAP1 DIV PUSH20 0xFFFFFFFFFFFFFFFFFFFFFFFFFFFFFFFFFFFFFFFF AND PUSH20 0xFFFFFFFFFFFFFFFFFFFFFFFFFFFFFFFFFFFFFFFF AND EQ PUSH2 0x1C0 JUMPI PUSH1 0x40 MLOAD PUSH32 0x8C379A000000000000000000000000000000000000000000000000000000000 DUP2 MSTORE PUSH1 0x4 ADD PUSH2 0x1B7 SWAP1 PUSH2 0x77C JUMP JUMPDEST PUSH1 0x40 MLOAD DUP1 SWAP2 SUB SWAP1 REVERT JUMPDEST SELFBALANCE SWAP1 POP SWAP1 JUMP JUMPDEST PUSH0 DUP1 SLOAD SWAP1 PUSH2 0x100 EXP SWAP1 DIV PUSH20 0xFFFFFFFFFFFFFFFFFFFFFFFFFFFFFFFFFFFFFFFF AND DUP2 JUMP JUMPDEST CALLER PUSH20 0xFFFFFFFFFFFFFFFFFFFFFFFFFFFFFFFFFFFFFFFF AND PUSH0 DUP1 SLOAD SWAP1 PUSH2 0x100 EXP SWAP1 DIV PUSH20 0xFFFFFFFFFFFFFFFFFFFFFFFFFFFFFFFFFFFFFFFF AND PUSH20 0xFFFFFFFFFFFFFFFFFFFFFFFFFFFFFFFFFFFFFFFF AND EQ PUSH2 0x276 JUMPI PUSH1 0x40 MLOAD PUSH32 0x8C379A000000000000000000000000000000000000000000000000000000000 DUP2 MSTORE PUSH1 0x4 ADD PUSH2 0x26D SWAP1 PUSH2 0x7E4 JUMP JUMPDEST PUSH1 0x40 MLOAD DUP1 SWAP2 SUB SWAP1 REVERT JUMPDEST PUSH1 0x3 PUSH1 0x1 DUP1 SLOAD SWAP1 POP LT ISZERO PUSH2 0x2BF JUMPI PUSH1 0x40 MLOAD PUSH32 0x8C379A000000000000000000000000000000000000000000000000000000000 DUP2 MSTORE PUSH1 0x4 ADD PUSH2 0x2B6 SWAP1 PUSH2 0x84C JUMP JUMPDEST PUSH1 0x40 MLOAD DUP1 SWAP2 SUB SWAP1 REVERT JUMPDEST PUSH0 PUSH2 0x2C8 PUSH2 0x52D JUMP JUMPDEST SWAP1 POP PUSH0 PUSH1 0x1 DUP1 SLOAD SWAP1 POP DUP3 PUSH2 0x2DC SWAP2 SWAP1 PUSH2 0x897 JUMP JUMPDEST SWAP1 POP PUSH1 0x1 DUP2 DUP2 SLOAD DUP2 LT PUSH2 0x2F2 JUMPI PUSH2 0x2F1 PUSH2 0x8C7 JUMP JUMPDEST JUMPDEST SWAP1 PUSH0 MSTORE PUSH1 0x20 PUSH0 KECCAK256 ADD PUSH0 SWAP1 SLOAD SWAP1 PUSH2 0x100 EXP SWAP1 DIV PUSH20 0xFFFFFFFFFFFFFFFFFFFFFFFFFFFFFFFFFFFFFFFF AND PUSH1 0x2 PUSH0 PUSH2 0x100 EXP DUP2 SLOAD DUP2 PUSH20 0xFFFFFFFFFFFFFFFFFFFFFFFFFFFFFFFFFFFFFFFF MUL NOT AND SWAP1 DUP4 PUSH20 0xFFFFFFFFFFFFFFFFFFFFFFFFFFFFFFFFFFFFFFFF AND MUL OR SWAP1 SSTORE POP PUSH1 0x2 PUSH0 SWAP1 SLOAD SWAP1 PUSH2 0x100 EXP SWAP1 DIV PUSH20 0xFFFFFFFFFFFFFFFFFFFFFFFFFFFFFFFFFFFFFFFF AND PUSH20 0xFFFFFFFFFFFFFFFFFFFFFFFFFFFFFFFFFFFFFFFF AND PUSH2 0x8FC PUSH2 0x39C PUSH2 0x132 JUMP JUMPDEST SWAP1 DUP2 ISZERO MUL SWAP1 PUSH1 0x40 MLOAD PUSH0 PUSH1 0x40 MLOAD DUP1 DUP4 SUB DUP2 DUP6 DUP9 DUP9 CALL SWAP4 POP POP POP POP ISZERO DUP1 ISZERO PUSH2 0x3C4 JUMPI RETURNDATASIZE PUSH0 DUP1 RETURNDATACOPY RETURNDATASIZE PUSH0 REVERT JUMPDEST POP PUSH0 PUSH8 0xFFFFFFFFFFFFFFFF DUP2 GT ISZERO PUSH2 0x3DF JUMPI PUSH2 0x3DE PUSH2 0x8F4 JUMP JUMPDEST JUMPDEST PUSH1 0x40 MLOAD SWAP1 DUP1 DUP3 MSTORE DUP1 PUSH1 0x20 MUL PUSH1 0x20 ADD DUP3 ADD PUSH1 0x40 MSTORE DUP1 ISZERO PUSH2 0x40D JUMPI DUP2 PUSH1 0x20 ADD PUSH1 0x20 DUP3 MUL DUP1 CALLDATASIZE DUP4 CALLDATACOPY DUP1 DUP3 ADD SWAP2 POP POP SWAP1 POP JUMPDEST POP PUSH1 0x1 SWAP1 DUP1 MLOAD SWAP1 PUSH1 0x20 ADD SWAP1 PUSH2 0x423 SWAP3 SWAP2 SWAP1 PUSH2 0x565 JUMP JUMPDEST POP POP POP JUMP JUMPDEST PUSH1 0xA CALLVALUE EQ PUSH2 0x46B JUMPI PUSH1 0x40 MLOAD PUSH32 0x8C379A000000000000000000000000000000000000000000000000000000000 DUP2 MSTORE PUSH1 0x4 ADD PUSH2 0x462 SWAP1 PUSH2 0x96B JUMP JUMPDEST PUSH1 0x40 MLOAD DUP1 SWAP2 SUB SWAP1 REVERT JUMPDEST PUSH1 0x1 CALLER SWAP1 DUP1 PUSH1 0x1 DUP2 SLOAD ADD DUP1 DUP3 SSTORE DUP1 SWAP2 POP POP PUSH1 0x1 SWAP1 SUB SWAP1 PUSH0 MSTORE PUSH1 0x20 PUSH0 KECCAK256 ADD PUSH0 SWAP1 SWAP2 SWAP1 SWAP2 SWAP1 SWAP2 PUSH2 0x100 EXP DUP2 SLOAD DUP2 PUSH20 0xFFFFFFFFFFFFFFFFFFFFFFFFFFFFFFFFFFFFFFFF MUL NOT AND SWAP1 DUP4 PUSH20 0xFFFFFFFFFFFFFFFFFFFFFFFFFFFFFFFFFFFFFFFF AND MUL OR SWAP1 SSTORE POP JUMP JUMPDEST PUSH1 0x2 PUSH0 SWAP1 SLOAD SWAP1 PUSH2 0x100 EXP SWAP1 DIV PUSH20 0xFFFFFFFFFFFFFFFFFFFFFFFFFFFFFFFFFFFFFFFF AND DUP2 JUMP JUMPDEST PUSH1 0x1 DUP2 DUP2 SLOAD DUP2 LT PUSH2 0x501 JUMPI PUSH0 DUP1 REVERT JUMPDEST SWAP1 PUSH0 MSTORE PUSH1 0x20 PUSH0 KECCAK256 ADD PUSH0 SWAP2 POP SLOAD SWAP1 PUSH2 0x100 EXP SWAP1 DIV PUSH20 0xFFFFFFFFFFFFFFFFFFFFFFFFFFFFFFFFFFFFFFFF AND DUP2 JUMP JUMPDEST PUSH0 PREVRANDAO TIMESTAMP PUSH1 0x1 DUP1 SLOAD SWAP1 POP PUSH1 0x40 MLOAD PUSH1 0x20 ADD PUSH2 0x548 SWAP4 SWAP3 SWAP2 SWAP1 PUSH2 0x9A9 JUMP JUMPDEST PUSH1 0x40 MLOAD PUSH1 0x20 DUP2 DUP4 SUB SUB DUP2 MSTORE SWAP1 PUSH1 0x40 MSTORE DUP1 MLOAD SWAP1 PUSH1 0x20 ADD KECCAK256 PUSH0 SHR SWAP1 POP SWAP1 JUMP JUMPDEST DUP3 DUP1 SLOAD DUP3 DUP3 SSTORE SWAP1 PUSH0 MSTORE PUSH1 0x20 PUSH0 KECCAK256 SWAP1 DUP2 ADD SWAP3 DUP3 ISZERO PUSH2 0x5DB JUMPI SWAP2 PUSH1 0x20 MUL DUP3 ADD JUMPDEST DUP3 DUP2 GT ISZERO PUSH2 0x5DA JUMPI DUP3 MLOAD DUP3 PUSH0 PUSH2 0x100 EXP DUP2 SLOAD DUP2 PUSH20 0xFFFFFFFFFFFFFFFFFFFFFFFFFFFFFFFFFFFFFFFF MUL NOT AND SWAP1 DUP4 PUSH20 0xFFFFFFFFFFFFFFFFFFFFFFFFFFFFFFFFFFFFFFFF AND MUL OR SWAP1 SSTORE POP SWAP2 PUSH1 0x20 ADD SWAP2 SWAP1 PUSH1 0x1 ADD SWAP1 PUSH2 0x583 JUMP JUMPDEST JUMPDEST POP SWAP1 POP PUSH2 0x5E8 SWAP2 SWAP1 PUSH2 0x5EC JUMP JUMPDEST POP SWAP1 JUMP JUMPDEST JUMPDEST DUP1 DUP3 GT ISZERO PUSH2 0x603 JUMPI PUSH0 DUP2 PUSH0 SWAP1 SSTORE POP PUSH1 0x1 ADD PUSH2 0x5ED JUMP JUMPDEST POP SWAP1 JUMP JUMPDEST PUSH0 DUP2 SWAP1 POP SWAP2 SWAP1 POP JUMP JUMPDEST PUSH2 0x619 DUP2 PUSH2 0x607 JUMP JUMPDEST DUP3 MSTORE POP POP JUMP JUMPDEST PUSH0 PUSH1 0x20 DUP3 ADD SWAP1 POP PUSH2 0x632 PUSH0 DUP4 ADD DUP5 PUSH2 0x610 JUMP JUMPDEST SWAP3 SWAP2 POP POP JUMP JUMPDEST PUSH0 PUSH20 0xFFFFFFFFFFFFFFFFFFFFFFFFFFFFFFFFFFFFFFFF DUP3 AND SWAP1 POP SWAP2 SWAP1 POP JUMP JUMPDEST PUSH0 PUSH2 0x661 DUP3 PUSH2 0x638 JUMP JUMPDEST SWAP1 POP SWAP2 SWAP1 POP JUMP JUMPDEST PUSH2 0x671 DUP2 PUSH2 0x657 JUMP JUMPDEST DUP3 MSTORE POP POP JUMP JUMPDEST PUSH0 PUSH1 0x20 DUP3 ADD SWAP1 POP PUSH2 0x68A PUSH0 DUP4 ADD DUP5 PUSH2 0x668 JUMP JUMPDEST SWAP3 SWAP2 POP POP JUMP JUMPDEST PUSH0 PUSH2 0x69A DUP3 PUSH2 0x638 JUMP JUMPDEST SWAP1 POP SWAP2 SWAP1 POP JUMP JUMPDEST PUSH2 0x6AA DUP2 PUSH2 0x690 JUMP JUMPDEST DUP3 MSTORE POP POP JUMP JUMPDEST PUSH0 PUSH1 0x20 DUP3 ADD SWAP1 POP PUSH2 0x6C3 PUSH0 DUP4 ADD DUP5 PUSH2 0x6A1 JUMP JUMPDEST SWAP3 SWAP2 POP POP JUMP JUMPDEST PUSH0 DUP1 REVERT JUMPDEST PUSH2 0x6D6 DUP2 PUSH2 0x607 JUMP JUMPDEST DUP2 EQ PUSH2 0x6E0 JUMPI PUSH0 DUP1 REVERT JUMPDEST POP JUMP JUMPDEST PUSH0 DUP2 CALLDATALOAD SWAP1 POP PUSH2 0x6F1 DUP2 PUSH2 0x6CD JUMP JUMPDEST SWAP3 SWAP2 POP POP JUMP JUMPDEST PUSH0 PUSH1 0x20 DUP3 DUP5 SUB SLT ISZERO PUSH2 0x70C JUMPI PUSH2 0x70B PUSH2 0x6C9 JUMP JUMPDEST JUMPDEST PUSH0 PUSH2 0x719 DUP5 DUP3 DUP6 ADD PUSH2 0x6E3 JUMP JUMPDEST SWAP2 POP POP SWAP3 SWAP2 POP POP JUMP JUMPDEST PUSH0 DUP3 DUP3 MSTORE PUSH1 0x20 DUP3 ADD SWAP1 POP SWAP3 SWAP2 POP POP JUMP JUMPDEST PUSH32 0x796F7520617265206E6F74206D616E6167657200000000000000000000000000 PUSH0 DUP3 ADD MSTORE POP JUMP JUMPDEST PUSH0 PUSH2 0x766 PUSH1 0x13 DUP4 PUSH2 0x722 JUMP JUMPDEST SWAP2 POP PUSH2 0x771 DUP3 PUSH2 0x732 JUMP JUMPDEST PUSH1 0x20 DUP3 ADD SWAP1 POP SWAP2 SWAP1 POP JUMP JUMPDEST PUSH0 PUSH1 0x20 DUP3 ADD SWAP1 POP DUP2 DUP2 SUB PUSH0 DUP4 ADD MSTORE PUSH2 0x793 DUP2 PUSH2 0x75A JUMP JUMPDEST SWAP1 POP SWAP2 SWAP1 POP JUMP JUMPDEST PUSH32 0x796F7520617265206E6F7420746865206D616E61676572000000000000000000 PUSH0 DUP3 ADD MSTORE POP JUMP JUMPDEST PUSH0 PUSH2 0x7CE PUSH1 0x17 DUP4 PUSH2 0x722 JUMP JUMPDEST SWAP2 POP PUSH2 0x7D9 DUP3 PUSH2 0x79A JUMP JUMPDEST PUSH1 0x20 DUP3 ADD SWAP1 POP SWAP2 SWAP1 POP JUMP JUMPDEST PUSH0 PUSH1 0x20 DUP3 ADD SWAP1 POP DUP2 DUP2 SUB PUSH0 DUP4 ADD MSTORE PUSH2 0x7FB DUP2 PUSH2 0x7C2 JUMP JUMPDEST SWAP1 POP SWAP2 SWAP1 POP JUMP JUMPDEST PUSH32 0x706C617965727320617265206C657373207468616E2033000000000000000000 PUSH0 DUP3 ADD MSTORE POP JUMP JUMPDEST PUSH0 PUSH2 0x836 PUSH1 0x17 DUP4 PUSH2 0x722 JUMP JUMPDEST SWAP2 POP PUSH2 0x841 DUP3 PUSH2 0x802 JUMP JUMPDEST PUSH1 0x20 DUP3 ADD SWAP1 POP SWAP2 SWAP1 POP JUMP JUMPDEST PUSH0 PUSH1 0x20 DUP3 ADD SWAP1 POP DUP2 DUP2 SUB PUSH0 DUP4 ADD MSTORE PUSH2 0x863 DUP2 PUSH2 0x82A JUMP JUMPDEST SWAP1 POP SWAP2 SWAP1 POP JUMP JUMPDEST PUSH32 0x4E487B7100000000000000000000000000000000000000000000000000000000 PUSH0 MSTORE PUSH1 0x12 PUSH1 0x4 MSTORE PUSH1 0x24 PUSH0 REVERT JUMPDEST PUSH0 PUSH2 0x8A1 DUP3 PUSH2 0x607 JUMP JUMPDEST SWAP2 POP PUSH2 0x8AC DUP4 PUSH2 0x607 JUMP JUMPDEST SWAP3 POP DUP3 PUSH2 0x8BC JUMPI PUSH2 0x8BB PUSH2 0x86A JUMP JUMPDEST JUMPDEST DUP3 DUP3 MOD SWAP1 POP SWAP3 SWAP2 POP POP JUMP JUMPDEST PUSH32 0x4E487B7100000000000000000000000000000000000000000000000000000000 PUSH0 MSTORE PUSH1 0x32 PUSH1 0x4 MSTORE PUSH1 0x24 PUSH0 REVERT JUMPDEST PUSH32 0x4E487B7100000000000000000000000000000000000000000000000000000000 PUSH0 MSTORE PUSH1 0x41 PUSH1 0x4 MSTORE PUSH1 0x24 PUSH0 REVERT JUMPDEST PUSH32 0x706C65617365207061792031206574686572206F6E6C79000000000000000000 PUSH0 DUP3 ADD MSTORE POP JUMP JUMPDEST PUSH0 PUSH2 0x955 PUSH1 0x17 DUP4 PUSH2 0x722 JUMP JUMPDEST SWAP2 POP PUSH2 0x960 DUP3 PUSH2 0x921 JUMP JUMPDEST PUSH1 0x20 DUP3 ADD SWAP1 POP SWAP2 SWAP1 POP JUMP JUMPDEST PUSH0 PUSH1 0x20 DUP3 ADD SWAP1 POP DUP2 DUP2 SUB PUSH0 DUP4 ADD MSTORE PUSH2 0x982 DUP2 PUSH2 0x949 JUMP JUMPDEST SWAP1 POP SWAP2 SWAP1 POP JUMP JUMPDEST PUSH0 DUP2 SWAP1 POP SWAP2 SWAP1 POP JUMP JUMPDEST PUSH2 0x9A3 PUSH2 0x99E DUP3 PUSH2 0x607 JUMP JUMPDEST PUSH2 0x989 JUMP JUMPDEST DUP3 MSTORE POP POP JUMP JUMPDEST PUSH0 PUSH2 0x9B4 DUP3 DUP7 PUSH2 0x992 JUMP JUMPDEST PUSH1 0x20 DUP3 ADD SWAP2 POP PUSH2 0x9C4 DUP3 DUP6 PUSH2 0x992 JUMP JUMPDEST PUSH1 0x20 DUP3 ADD SWAP2 POP PUSH2 0x9D4 DUP3 DUP5 PUSH2 0x992 JUMP JUMPDEST PUSH1 0x20 DUP3 ADD SWAP2 POP DUP2 SWAP1 POP SWAP5 SWAP4 POP POP POP POP JUMP INVALID LOG2 PUSH5 0x6970667358 0x22 SLT KECCAK256 PUSH32 0x48625A56F7F988CAFC77083A4D8B1D29E2F9B674DF8DDE32B80A6CAD3A07E964 PUSH20 0x6F6C634300081A00330000000000000000000000 "
				},
				"gasEstimates": {
					"creation": {
						"codeDepositCost": "517400",
						"executionCost": "24812",
						"totalCost": "542212"
					},
					"external": {
						"getBalance()": "2573",
						"manager()": "2505",
						"participate()": "48760",
						"pickWinner()": "infinite",
						"players(uint256)": "5032",
						"winner()": "2574"
					},
					"internal": {
						"random()": "infinite"
					}
				},
				"methodIdentifiers": {
					"getBalance()": "12065fe0",
					"manager()": "481c6a75",
					"participate()": "d11711a2",
					"pickWinner()": "5d495aea",
					"players(uint256)": "f71d96cb",
					"winner()": "dfbf53ae"
				}
			},
			"storageLayout": {
				"storage": [
					{
						"astId": 3,
						"contract": "contracts/lotter.sol:Lottery",
						"label": "manager",
						"offset": 0,
						"slot": "0",
						"type": "t_address"
					},
					{
						"astId": 6,
						"contract": "contracts/lotter.sol:Lottery",
						"label": "players",
						"offset": 0,
						"slot": "1",
						"type": "t_array(t_address_payable)dyn_storage"
					},
					{
						"astId": 8,
						"contract": "contracts/lotter.sol:Lottery",
						"label": "winner",
						"offset": 0,
						"slot": "2",
						"type": "t_address_payable"
					}
				],
				"types": {
					"t_address": {
						"encoding": "inplace",
						"label": "address",
						"numberOfBytes": "20"
					},
					"t_address_payable": {
						"encoding": "inplace",
						"label": "address payable",
						"numberOfBytes": "20"
					},
					"t_array(t_address_payable)dyn_storage": {
						"base": "t_address_payable",
						"encoding": "dynamic_array",
						"label": "address payable[]",
						"numberOfBytes": "32"
					}
				}
			},
			"userdoc": {
				"kind": "user",
				"methods": {},
				"version": 1
			}
		}
	}
}